:020000040000FA
:0600000099EF00F0120070
:020006000000F8
:08000800060EF66E000EF76E05
:10001000000EF86E00010900F550656F0900F550FB
:10002000666F03E1656701D03DD00900F550606F50
:100030000900F550616F0900F550626F0900090071
:10004000F550E96E0900F550EA6E09000900090053
:10005000F550636F0900F550646F09000900F6CF91
:1000600067F0F7CF68F0F8CF69F060C0F6FF61C0C5
:10007000F7FF62C0F8FF0001635302E1645307E039
:100080000900F550EE6E6307F8E26407F9D767C020
:10009000F6FF68C0F7FF69C0F8FF00016507000EB2
:0600A000665BBFD71200F1
:0A00A600D9CFE6FFE1CFD9FF020E2B
:1000B000E126949C948E9490240EAC6E900EAB6EC0
:1000C000190EAF6E9E9A9EAAFED7AE50DE6EDD6A06
:1000D000000EDFCF06F0010EDBCF07F0300E061862
:1000E00001E1075008E0310E061801E1075001E078
:1000F00005D0828003D0829001D09E9AE3D7020E71
:10010000E15C02E2E16AE552E16EE552E7CFD9FF38
:020110001200DB
:0E011200000EF36E00EE00F0060E01D8120093
:10012000EA6002D0EE6AFCD7F350E9601200EE6A92
:02013000FCD7FA
:0E01320015EE00F025EE00F0F86A0A9C04ECD1
:0E01400000F0A7EC00F053EC00F0FBD712002B
:02014E0012009D
:00000001FF
